{
  "contractName": "Votingsol",
  "abi": [
    {
      "anonymous": false,
      "inputs": [
        {
          "indexed": true,
          "internalType": "uint256",
          "name": "id",
          "type": "uint256"
        }
      ],
      "name": "votedEvent",
      "type": "event"
    },
    {
      "inputs": [],
      "name": "candidateCount",
      "outputs": [
        {
          "internalType": "uint256",
          "name": "",
          "type": "uint256"
        }
      ],
      "stateMutability": "view",
      "type": "function",
      "constant": true
    },
    {
      "inputs": [
        {
          "internalType": "uint256",
          "name": "",
          "type": "uint256"
        }
      ],
      "name": "candidateLookup",
      "outputs": [
        {
          "internalType": "uint256",
          "name": "id",
          "type": "uint256"
        },
        {
          "internalType": "string",
          "name": "name",
          "type": "string"
        },
        {
          "internalType": "string",
          "name": "electionName",
          "type": "string"
        },
        {
          "internalType": "string",
          "name": "symbol",
          "type": "string"
        },
        {
          "internalType": "uint256",
          "name": "voteCount",
          "type": "uint256"
        }
      ],
      "stateMutability": "view",
      "type": "function",
      "constant": true
    },
    {
      "inputs": [
        {
          "internalType": "address",
          "name": "",
          "type": "address"
        },
        {
          "internalType": "string",
          "name": "",
          "type": "string"
        }
      ],
      "name": "votedUser",
      "outputs": [
        {
          "internalType": "bool",
          "name": "",
          "type": "bool"
        }
      ],
      "stateMutability": "view",
      "type": "function",
      "constant": true
    },
    {
      "inputs": [
        {
          "internalType": "string",
          "name": "name",
          "type": "string"
        },
        {
          "internalType": "string",
          "name": "electionName",
          "type": "string"
        },
        {
          "internalType": "string",
          "name": "symbol",
          "type": "string"
        }
      ],
      "name": "addCandidate",
      "outputs": [],
      "stateMutability": "nonpayable",
      "type": "function"
    },
    {
      "inputs": [],
      "name": "getCandidatecount",
      "outputs": [
        {
          "internalType": "uint256",
          "name": "",
          "type": "uint256"
        }
      ],
      "stateMutability": "view",
      "type": "function",
      "constant": true
    },
    {
      "inputs": [
        {
          "internalType": "address",
          "name": "_Id",
          "type": "address"
        },
        {
          "internalType": "string",
          "name": "_name",
          "type": "string"
        },
        {
          "internalType": "bool",
          "name": "_status",
          "type": "bool"
        }
      ],
      "name": "addVoter",
      "outputs": [],
      "stateMutability": "nonpayable",
      "type": "function"
    },
    {
      "inputs": [
        {
          "internalType": "address",
          "name": "_Id",
          "type": "address"
        },
        {
          "internalType": "string",
          "name": "_name",
          "type": "string"
        }
      ],
      "name": "getVoter",
      "outputs": [
        {
          "internalType": "bool",
          "name": "",
          "type": "bool"
        }
      ],
      "stateMutability": "view",
      "type": "function",
      "constant": true
    },
    {
      "inputs": [
        {
          "internalType": "string",
          "name": "electionName",
          "type": "string"
        }
      ],
      "name": "getCandidates",
      "outputs": [
        {
          "internalType": "string[]",
          "name": "",
          "type": "string[]"
        }
      ],
      "stateMutability": "view",
      "type": "function",
      "constant": true
    },
    {
      "inputs": [
        {
          "internalType": "string",
          "name": "electionName",
          "type": "string"
        }
      ],
      "name": "getCandidatesname",
      "outputs": [
        {
          "internalType": "string[]",
          "name": "",
          "type": "string[]"
        }
      ],
      "stateMutability": "view",
      "type": "function",
      "constant": true
    },
    {
      "inputs": [
        {
          "internalType": "uint256",
          "name": "id",
          "type": "uint256"
        },
        {
          "internalType": "string",
          "name": "electionName",
          "type": "string"
        }
      ],
      "name": "vote",
      "outputs": [
        {
          "internalType": "uint256",
          "name": "uid",
          "type": "uint256"
        }
      ],
      "stateMutability": "nonpayable",
      "type": "function"
    }
  ],
  "bytecode": "0x608060405234801561001057600080fd5b506110bb806100206000396000f3fe608060405234801561001057600080fd5b506004361061009e5760003560e01c80638e13e301116100665780638e13e30114610129578063a9a981a31461013c578063abff6e7a14610144578063ad71f8dc14610168578063fc0cb77b1461017b5761009e565b8063198601d9146100a357806324108475146100b85780632a494958146100e15780632ff47ab8146101015780634553476314610109575b600080fd5b6100b66100b1366004610bf5565b61018e565b005b6100cb6100c6366004610d30565b6101e6565b6040516100d89190610f55565b60405180910390f35b6100f46100ef366004610ba9565b610263565b6040516100d89190610f4a565b6100cb6102a4565b61011c610117366004610c59565b6102aa565b6040516100d89190610eea565b61011c610137366004610c59565b61049d565b6100cb610643565b610157610152366004610d18565b610649565b6040516100d8959493929190610f5e565b6100b6610176366004610c94565b61080f565b6100f4610189366004610ba9565b6108c6565b80600080856001600160a01b03166001600160a01b03168152602001908152602001600020836040516101c19190610e23565b908152604051908190036020019020805491151560ff19909216919091179055505050565b600060016002546101f79190610fbc565b83111561020357600080fd5b60008381526001602052604081206004018054916102208361103e565b91905055506102313383600161018e565b60405183907ffff3c900d938d21d0990d786e819f29b8d05c1ef587b462b939609625b684b1690600090a25090919050565b6001600160a01b0382166000908152602081905260408082209051610289908490610e23565b9081526040519081900360200190205460ff16905092915050565b60025490565b6060600060025467ffffffffffffffff8111156102d757634e487b7160e01b600052604160045260246000fd5b60405190808252806020026020018201604052801561030a57816020015b60608152602001906001900390816102f55790505b50905060005b6002548110156104945783516000828152600160205260409020600201805461033890611003565b9050141561048257836040516020016103519190610e23565b60408051601f198184030181528282528051602091820120600085815260018352929092209192610386926002019101610eba565b60405160208183030381529060405280519060200120141561048257600081815260016020818152604080842090516103c493919091019101610ecd565b60408051601f198184030181528282526000858152600160209081529290209093506103f892849260039092019101610e6e565b60405160208183030381529060405290508060405160200161041a9190610e95565b604051602081830303815290604052905080610435836108f4565b604051602001610446929190610e3f565b60405160208183030381529060405283838151811061047557634e487b7160e01b600052603260045260246000fd5b6020026020010181905250505b8061048c8161103e565b915050610310565b5090505b919050565b6060600060025467ffffffffffffffff8111156104ca57634e487b7160e01b600052604160045260246000fd5b6040519080825280602002602001820160405280156104fd57816020015b60608152602001906001900390816104e85790505b50905060005b6002548110156104945783516000828152600160205260409020600201805461052b90611003565b9050141561063157836040516020016105449190610e23565b60408051601f198184030181528282528051602091820120600085815260018352929092209192610579926002019101610eba565b60405160208183030381529060405280519060200120141561063157600081815260016020818152604080842090516105b793919091019101610ecd565b60408051601f1981840301815291815260008481526001602052206004015490915081906105e4906108f4565b6040516020016105f5929190610e3f565b60405160208183030381529060405283838151811061062457634e487b7160e01b600052603260045260246000fd5b6020026020010181905250505b8061063b8161103e565b915050610503565b60025481565b60016020819052600091825260409091208054918101805461066a90611003565b80601f016020809104026020016040519081016040528092919081815260200182805461069690611003565b80156106e35780601f106106b8576101008083540402835291602001916106e3565b820191906000526020600020905b8154815290600101906020018083116106c657829003601f168201915b5050505050908060020180546106f890611003565b80601f016020809104026020016040519081016040528092919081815260200182805461072490611003565b80156107715780601f1061074657610100808354040283529160200191610771565b820191906000526020600020905b81548152906001019060200180831161075457829003601f168201915b50505050509080600301805461078690611003565b80601f01602080910402602001604051908101604052809291908181526020018280546107b290611003565b80156107ff5780601f106107d4576101008083540402835291602001916107ff565b820191906000526020600020905b8154815290600101906020018083116107e257829003601f168201915b5050505050908060040154905085565b6040805160a081018252600254808252602080830187815283850187905260608401869052600060808501819052928352600180835294909220835181559151805193949293610866938501929190910190610a78565b5060408201518051610882916002840191602090910190610a78565b506060820151805161089e916003840191602090910190610a78565b5060809190910151600490910155600280549060006108bc8361103e565b9190505550505050565b6000602081815292815260409020815180830184018051928152908401929093019190912091525460ff1681565b606060006109018361099f565b600101905060008167ffffffffffffffff81111561092f57634e487b7160e01b600052604160045260246000fd5b6040519080825280601f01601f191660200182016040528015610959576020820181803683370190505b5090508181016020015b600019016f181899199a1a9b1b9c1cb0b131b232b360811b600a86061a8153600a850494508461099257610997565b610963565b509392505050565b60008072184f03e93ff9f4daa797ed6e38ed64bf6a1f0160401b83106109de5772184f03e93ff9f4daa797ed6e38ed64bf6a1f0160401b830492506040015b6d04ee2d6d415b85acef81000000008310610a0a576d04ee2d6d415b85acef8100000000830492506020015b662386f26fc100008310610a2857662386f26fc10000830492506010015b6305f5e1008310610a40576305f5e100830492506008015b6127108310610a5457612710830492506004015b60648310610a66576064830492506002015b600a8310610a72576001015b92915050565b828054610a8490611003565b90600052602060002090601f016020900481019282610aa65760008555610aec565b82601f10610abf57805160ff1916838001178555610aec565b82800160010185558215610aec579182015b82811115610aec578251825591602001919060010190610ad1565b50610af8929150610afc565b5090565b5b80821115610af85760008155600101610afd565b80356001600160a01b038116811461049857600080fd5b600082601f830112610b38578081fd5b813567ffffffffffffffff80821115610b5357610b5361106f565b604051601f8301601f191681016020018281118282101715610b7757610b7761106f565b604052828152848301602001861015610b8e578384fd5b82602086016020830137918201602001929092529392505050565b60008060408385031215610bbb578182fd5b610bc483610b11565b9150602083013567ffffffffffffffff811115610bdf578182fd5b610beb85828601610b28565b9150509250929050565b600080600060608486031215610c09578081fd5b610c1284610b11565b9250602084013567ffffffffffffffff811115610c2d578182fd5b610c3986828701610b28565b92505060408401358015158114610c4e578182fd5b809150509250925092565b600060208284031215610c6a578081fd5b813567ffffffffffffffff811115610c80578182fd5b610c8c84828501610b28565b949350505050565b600080600060608486031215610ca8578283fd5b833567ffffffffffffffff80821115610cbf578485fd5b610ccb87838801610b28565b94506020860135915080821115610ce0578384fd5b610cec87838801610b28565b93506040860135915080821115610d01578283fd5b50610d0e86828701610b28565b9150509250925092565b600060208284031215610d29578081fd5b5035919050565b60008060408385031215610d42578182fd5b82359150602083013567ffffffffffffffff811115610bdf578182fd5b60008151808452610d77816020860160208601610fd3565b601f01601f19169290920160200192915050565b805460009060028104600180831680610da557607f831692505b6020808410821415610dc557634e487b7160e01b86526022600452602486fd5b818015610dd95760018114610dea57610e17565b60ff19861689528489019650610e17565b610df388610fb0565b60005b86811015610e0f5781548b820152908501908301610df6565b505084890196505b50505050505092915050565b60008251610e35818460208701610fd3565b9190910192915050565b60008351610e51818460208801610fd3565b835190830190610e65818360208801610fd3565b01949350505050565b60008351610e80818460208801610fd3565b610e8c81840185610d8b565b95945050505050565b60008251610ea7818460208701610fd3565b602d60f81b920191825250600101919050565b6000610ec68284610d8b565b9392505050565b6000610ed98284610d8b565b602d60f81b81526001019392505050565b6000602080830181845280855180835260408601915060408482028701019250838701855b82811015610f3d57603f19888603018452610f2b858351610d5f565b94509285019290850190600101610f0f565b5092979650505050505050565b901515815260200190565b90815260200190565b600086825260a06020830152610f7760a0830187610d5f565b8281036040840152610f898187610d5f565b90508281036060840152610f9d8186610d5f565b9150508260808301529695505050505050565b60009081526020902090565b600082821015610fce57610fce611059565b500390565b60005b83811015610fee578181015183820152602001610fd6565b83811115610ffd576000848401525b50505050565b60028104600182168061101757607f821691505b6020821081141561103857634e487b7160e01b600052602260045260246000fd5b50919050565b600060001982141561105257611052611059565b5060010190565b634e487b7160e01b600052601160045260246000fd5b634e487b7160e01b600052604160045260246000fdfea2646970667358221220652ce6bad6343a413fec4510c09b976dbbd7bd1d5afbe6c0ba66745007d3be4264736f6c63430008000033",
  "immutableReferences": {},
  "source": "// SPDX-License-Identifier: UNLICENSED\r\npragma solidity ^0.8.0;\r\npragma experimental ABIEncoderV2;\r\nimport \"@openzeppelin/contracts/utils/Strings.sol\";\r\n\r\n\r\n//pragma experimental ABIEncoderV2;\r\n\r\ncontract Votingsol {\r\n\r\n\r\nstruct Candidate {\r\n        uint id;\r\n        string name;\r\n        string electionName;\r\n        string symbol;\r\n        uint voteCount;\r\n    }\r\n\r\n//struct VotedUser {\r\n//    string electionname;    \r\n//   mapping(address => string) voterLookup;\r\n//}\r\n\tmapping(address=>mapping(string=>bool)) public votedUser;\r\n    //mapping(address => bool) public voterLookup;\r\n    //input Election Name to \r\n    //mapping(address => string) public voterLookup;\r\n    \r\n\tmapping(uint => Candidate) public candidateLookup; // Each candidate will be identified with a unique ID\r\n\r\n\tuint public candidateCount; // Keeps a track of the number of candidates and also fulfills the function to generate a unique ID\r\n\r\nfunction addCandidate(string memory name,string memory electionName,string memory symbol) external {\r\n  candidateLookup[candidateCount] = Candidate(candidateCount, name,electionName,symbol, 0);\r\n  candidateCount++;   \r\n}\r\n\r\nfunction getCandidatecount() external view returns (uint){\r\n  return candidateCount;   \r\n}\r\n\r\nfunction addVoter(address _Id,string memory _name, bool _status)public {\r\n    \t\tvotedUser[_Id][_name]=_status;\r\n    }\r\n\r\nfunction getVoter(address _Id,string memory _name)public view returns(bool)\r\n\t{\r\n  \t\treturn votedUser[_Id][_name];\r\n  }\r\n\r\nfunction getCandidates(string memory electionName) external view returns (string[] memory) {\r\n//function getCandidates(string memory electionName) external view returns (string[] memory, uint[] memory) {\r\n    string[] memory names = new string[](candidateCount);    \r\n   // uint[] memory voteCounts = new uint[](candidateCount);\r\n    //uint count=2;\r\n    //names[0]=\"test\";\r\n    for (uint i = 0; i < candidateCount; i++) {        \r\n        //check the length of both string to reduce gas expenses\r\n        if (bytes(candidateLookup[i].electionName).length == bytes(electionName).length) {\r\n            if ( keccak256(abi.encodePacked(candidateLookup[i].electionName)) == keccak256(abi.encodePacked(electionName)))\r\n            {\r\n                    string memory name = string(abi.encodePacked(candidateLookup[i].name,\"-\"));\r\n                    name = string(abi.encodePacked(name,candidateLookup[i].symbol));\r\n                    name = string(abi.encodePacked(name,\"-\"));\r\n                    names[i]=string(abi.encodePacked(name,Strings.toString(i)));\r\n                   // voteCounts[i] = candidateLookup[i].voteCount;\r\n            }\r\n\r\n        }\r\n        \r\n    }\r\n    //names[candidateCount]=\"test\";\r\n    //return (names, voteCounts);\r\n    return(names);\r\n}\r\n\r\nfunction getCandidatesname(string memory electionName) external view returns (string[] memory) {\r\n//function getCandidates(string memory electionName) external view returns (string[] memory, uint[] memory) {\r\n    string[] memory names = new string[](candidateCount);    \r\n    //string[] memory voteCounts = new string[](candidateCount);\r\n    //uint count=2;\r\n    for (uint i = 0; i < candidateCount; i++) {        \r\n        //check the length of both string to reduce gas expenses\r\n        if (bytes(candidateLookup[i].electionName).length == bytes(electionName).length) {\r\n            if ( keccak256(abi.encodePacked(candidateLookup[i].electionName)) == keccak256(abi.encodePacked(electionName)))\r\n            {\r\n                    string memory name = string(abi.encodePacked(candidateLookup[i].name,\"-\"));\r\n                    names[i] = string(abi.encodePacked(name,Strings.toString(candidateLookup[i].voteCount)));\r\n                    //voteCounts[i] = string(abi.encode(candidateLookup[i].voteCount));                    \r\n            }\r\n\r\n        }\r\n        \r\n    }\r\n    //names[candidateCount]=\"test\";\r\n    return (names);\r\n    //return(names);\r\n}\r\n\r\n    function vote(uint id,string memory electionName) external returns (uint uid){\r\n         \r\n    //    bool status = getVoter(msg.sender,electionName);\r\n    //    if(!status)\r\n    //    {\r\n        require (id >= 0 && id <= candidateCount-1);                \r\n        candidateLookup[id].voteCount++;\r\n        addVoter(msg.sender,electionName,true);\r\n        emit votedEvent(id);\r\n        return(id);\r\n    //    }\r\n    }\r\n\r\n    event votedEvent(uint indexed id);\r\n   \r\n  \r\n}",
  "sourcePath": "D:\\Onedrive\\gaurav@wqs42.onmicrosoft.com\\OneDrive - MSFT\\Desktop\\A framework to make Voting System Transparent\\A framework to make Voting System Transparent\\Blockchain\\contracts\\Votingsol.sol",
  "compiler": {
    "name": "solc",
    "version": "0.8.0+commit.c7dfd78e.Emscripten.clang"
  },
  "schemaVersion": "3.4.16",
  "updatedAt": "2024-05-03T16:19:07.148Z",
  "networkType": "ethereum",
  "devdoc": {
    "kind": "dev",
    "methods": {},
    "version": 1
  },
  "userdoc": {
    "kind": "user",
    "methods": {},
    "version": 1
  }
}