{
  "contractName": "Migrations",
  "abi": [
    {
      "inputs": [],
      "name": "last_completed_migration",
      "outputs": [
        {
          "internalType": "uint256",
          "name": "",
          "type": "uint256"
        }
      ],
      "stateMutability": "view",
      "type": "function",
      "constant": true
    },
    {
      "inputs": [],
      "name": "owner",
      "outputs": [
        {
          "internalType": "address",
          "name": "",
          "type": "address"
        }
      ],
      "stateMutability": "view",
      "type": "function",
      "constant": true
    },
    {
      "inputs": [],
      "name": "Migration",
      "outputs": [],
      "stateMutability": "nonpayable",
      "type": "function"
    },
    {
      "inputs": [
        {
          "internalType": "uint256",
          "name": "completed",
          "type": "uint256"
        }
      ],
      "name": "setCompleted",
      "outputs": [],
      "stateMutability": "nonpayable",
      "type": "function"
    },
    {
      "inputs": [
        {
          "internalType": "address",
          "name": "new_address",
          "type": "address"
        }
      ],
      "name": "upgrade",
      "outputs": [],
      "stateMutability": "nonpayable",
      "type": "function"
    }
  ],
  "bytecode": "0x608060405234801561001057600080fd5b50610212806100206000396000f3fe608060405234801561001057600080fd5b50600436106100575760003560e01c80630900f0101461005c5780631367a07814610071578063445df0ac146100795780638da5cb5b14610097578063fdacd576146100ac575b600080fd5b61006f61006a366004610179565b6100bf565b005b61006f610138565b61008161014c565b60405161008e91906101d3565b60405180910390f35b61009f610152565b60405161008e91906101bf565b61006f6100ba3660046101a7565b610161565b6000546001600160a01b031633141561013557600154604051637ed66abb60e11b815282916001600160a01b0383169163fdacd57691610101916004016101d3565b600060405180830381600087803b15801561011b57600080fd5b505af115801561012f573d6000803e3d6000fd5b50505050505b50565b600080546001600160a01b03191633179055565b60015481565b6000546001600160a01b031681565b6000546001600160a01b031633141561013557600155565b60006020828403121561018a578081fd5b81356001600160a01b03811681146101a0578182fd5b9392505050565b6000602082840312156101b8578081fd5b5035919050565b6001600160a01b0391909116815260200190565b9081526020019056fea264697066735822122092cc376de1bc5843cc939d7a70f6bad6b6d5e46ec33006594cf54809abff0f2e64736f6c63430008000033",
  "immutableReferences": {},
  "source": "//SPDX-License-Identifier: UNLICENSED\npragma solidity >=0.7.3;\n\ncontract Migrations {\n  address public owner;\n  uint public last_completed_migration;\n\n  modifier restricted() {\n    if (msg.sender == owner) _;\n  }\n\n  function Migration() public {\n    owner = msg.sender;\n  }\n\n  function setCompleted(uint completed) public restricted {\n    last_completed_migration = completed;\n  }\n\n  function upgrade(address new_address) public restricted {\n    Migrations upgraded = Migrations(new_address);\n    upgraded.setCompleted(last_completed_migration);\n  }\n}\n",
  "sourcePath": "D:\\Onedrive\\gaurav@wqs42.onmicrosoft.com\\OneDrive - MSFT\\Desktop\\A framework to make Voting System Transparent\\A framework to make Voting System Transparent\\Blockchain\\contracts\\Migrations.sol",
  "compiler": {
    "name": "solc",
    "version": "0.8.0+commit.c7dfd78e.Emscripten.clang"
  },
  "schemaVersion": "3.4.16",
  "updatedAt": "2024-05-03T16:19:07.294Z",
  "networkType": "ethereum",
  "devdoc": {
    "kind": "dev",
    "methods": {},
    "version": 1
  },
  "userdoc": {
    "kind": "user",
    "methods": {},
    "version": 1
  }
}